{
  "contractName": "Store",
  "abi": [
    {
      "inputs": [
        {
          "internalType": "string",
          "name": "_id",
          "type": "string"
        },
        {
          "internalType": "string",
          "name": "_businessName",
          "type": "string"
        },
        {
          "internalType": "string",
          "name": "_businessBranch",
          "type": "string"
        },
        {
          "internalType": "string",
          "name": "_ownerName",
          "type": "string"
        },
        {
          "internalType": "string",
          "name": "_req",
          "type": "string"
        }
      ],
      "name": "storeData",
      "outputs": [],
      "stateMutability": "nonpayable",
      "type": "function"
    },
    {
      "inputs": [
        {
          "internalType": "address",
          "name": "user",
          "type": "address"
        }
      ],
      "name": "getData",
      "outputs": [
        {
          "internalType": "string",
          "name": "",
          "type": "string"
        },
        {
          "internalType": "string",
          "name": "",
          "type": "string"
        },
        {
          "internalType": "string",
          "name": "",
          "type": "string"
        },
        {
          "internalType": "string",
          "name": "",
          "type": "string"
        },
        {
          "internalType": "string",
          "name": "",
          "type": "string"
        },
        {
          "internalType": "uint256",
          "name": "",
          "type": "uint256"
        }
      ],
      "stateMutability": "view",
      "type": "function",
      "constant": true
    }
  ],
  "bytecode": "0x608060405234801561001057600080fd5b50610a22806100206000396000f3fe608060405234801561001057600080fd5b50600436106100365760003560e01c806338266b221461003b5780638cbcbd7214610070575b600080fd5b610055600480360381019061005091906105ed565b61008c565b604051610067969594939291906106cc565b60405180910390f35b61008a60048036038101906100859190610885565b6103c2565b005b60608060608060606000806000808973ffffffffffffffffffffffffffffffffffffffff1673ffffffffffffffffffffffffffffffffffffffff1681526020019081526020016000209050806000018160010182600201836003018460040185600501548580546100fc906109bb565b80601f0160208091040260200160405190810160405280929190818152602001828054610128906109bb565b80156101755780601f1061014a57610100808354040283529160200191610175565b820191906000526020600020905b81548152906001019060200180831161015857829003601f168201915b50505050509550848054610188906109bb565b80601f01602080910402602001604051908101604052809291908181526020018280546101b4906109bb565b80156102015780601f106101d657610100808354040283529160200191610201565b820191906000526020600020905b8154815290600101906020018083116101e457829003601f168201915b50505050509450838054610214906109bb565b80601f0160208091040260200160405190810160405280929190818152602001828054610240906109bb565b801561028d5780601f106102625761010080835404028352916020019161028d565b820191906000526020600020905b81548152906001019060200180831161027057829003601f168201915b505050505093508280546102a0906109bb565b80601f01602080910402602001604051908101604052809291908181526020018280546102cc906109bb565b80156103195780601f106102ee57610100808354040283529160200191610319565b820191906000526020600020905b8154815290600101906020018083116102fc57829003601f168201915b5050505050925081805461032c906109bb565b80601f0160208091040260200160405190810160405280929190818152602001828054610358906109bb565b80156103a55780601f1061037a576101008083540402835291602001916103a5565b820191906000526020600020905b81548152906001019060200180831161038857829003601f168201915b505050505091509650965096509650965096505091939550919395565b60006040518060c00160405280878152602001868152602001858152602001848152602001838152602001428152509050806000803373ffffffffffffffffffffffffffffffffffffffff1673ffffffffffffffffffffffffffffffffffffffff168152602001908152602001600020600082015181600001908051906020019061044e9291906104d8565b50602082015181600101908051906020019061046b9291906104d8565b5060408201518160020190805190602001906104889291906104d8565b5060608201518160030190805190602001906104a59291906104d8565b5060808201518160040190805190602001906104c29291906104d8565b5060a08201518160050155905050505050505050565b8280546104e4906109bb565b90600052602060002090601f016020900481019282610506576000855561054d565b82601f1061051f57805160ff191683800117855561054d565b8280016001018555821561054d579182015b8281111561054c578251825591602001919060010190610531565b5b50905061055a919061055e565b5090565b5b8082111561057757600081600090555060010161055f565b5090565b6000604051905090565b600080fd5b600080fd5b600073ffffffffffffffffffffffffffffffffffffffff82169050919050565b60006105ba8261058f565b9050919050565b6105ca816105af565b81146105d557600080fd5b50565b6000813590506105e7816105c1565b92915050565b60006020828403121561060357610602610585565b5b6000610611848285016105d8565b91505092915050565b600081519050919050565b600082825260208201905092915050565b60005b83811015610654578082015181840152602081019050610639565b83811115610663576000848401525b50505050565b6000601f19601f8301169050919050565b60006106858261061a565b61068f8185610625565b935061069f818560208601610636565b6106a881610669565b840191505092915050565b6000819050919050565b6106c6816106b3565b82525050565b600060c08201905081810360008301526106e6818961067a565b905081810360208301526106fa818861067a565b9050818103604083015261070e818761067a565b90508181036060830152610722818661067a565b90508181036080830152610736818561067a565b905061074560a08301846106bd565b979650505050505050565b600080fd5b600080fd5b7f4e487b7100000000000000000000000000000000000000000000000000000000600052604160045260246000fd5b61079282610669565b810181811067ffffffffffffffff821117156107b1576107b061075a565b5b80604052505050565b60006107c461057b565b90506107d08282610789565b919050565b600067ffffffffffffffff8211156107f0576107ef61075a565b5b6107f982610669565b9050602081019050919050565b82818337600083830152505050565b6000610828610823846107d5565b6107ba565b90508281526020810184848401111561084457610843610755565b5b61084f848285610806565b509392505050565b600082601f83011261086c5761086b610750565b5b813561087c848260208601610815565b91505092915050565b600080600080600060a086880312156108a1576108a0610585565b5b600086013567ffffffffffffffff8111156108bf576108be61058a565b5b6108cb88828901610857565b955050602086013567ffffffffffffffff8111156108ec576108eb61058a565b5b6108f888828901610857565b945050604086013567ffffffffffffffff8111156109195761091861058a565b5b61092588828901610857565b935050606086013567ffffffffffffffff8111156109465761094561058a565b5b61095288828901610857565b925050608086013567ffffffffffffffff8111156109735761097261058a565b5b61097f88828901610857565b9150509295509295909350565b7f4e487b7100000000000000000000000000000000000000000000000000000000600052602260045260246000fd5b600060028204905060018216806109d357607f821691505b6020821081036109e6576109e561098c565b5b5091905056fea26469706673582212205c8f63960867e8ba5821d8e0034722e4524ff40b14c25ab2ad944e25e0c8b0a864736f6c634300080d0033",
  "immutableReferences": {},
  "source": "// SPDX-License-Identifier: MIT\r\npragma solidity >=0.4.25 <0.9.0;\r\n\r\ncontract Store {\r\n    struct Data {\r\n        string id; // ID assigned by admin\r\n        string businessName;\r\n        string businessBranch;\r\n        string ownerName;\r\n        string req; // Single field for required data\r\n        uint256 timestamp;\r\n    }\r\n\r\n    mapping(address => Data) private userToData;\r\n\r\n    // Function to store data\r\n    function storeData(\r\n        string memory _id,\r\n        string memory _businessName,\r\n        string memory _businessBranch,\r\n        string memory _ownerName,\r\n        string memory _req\r\n    ) public {\r\n        Data memory newData = Data({\r\n            id: _id,\r\n            businessName: _businessName,\r\n            businessBranch: _businessBranch,\r\n            ownerName: _ownerName,\r\n            req: _req,\r\n            timestamp: block.timestamp\r\n        });\r\n\r\n        userToData[msg.sender] = newData;\r\n    }\r\n\r\n    // Function to retrieve data\r\n    function getData(address user) external view returns (\r\n        string memory,\r\n        string memory,\r\n        string memory,\r\n        string memory,\r\n        string memory,\r\n        uint256\r\n    ) {\r\n        Data storage userData = userToData[user];\r\n\r\n        return (\r\n            userData.id,\r\n            userData.businessName,\r\n            userData.businessBranch,\r\n            userData.ownerName,\r\n            userData.req,\r\n            userData.timestamp\r\n        );\r\n    }\r\n}",
  "sourcePath": "C:\\xampp\\htdocs\\BUDS-2024\\CEIPO\\contracts\\Store.sol",
  "compiler": {
    "name": "solc",
    "version": "0.8.13+commit.abaa5c0e.Emscripten.clang"
  },
  "schemaVersion": "3.4.16",
  "updatedAt": "2024-06-18T13:58:40.799Z",
  "networkType": "ethereum",
  "devdoc": {
    "kind": "dev",
    "methods": {},
    "version": 1
  },
  "userdoc": {
    "kind": "user",
    "methods": {},
    "version": 1
  }
}